:100000000C945E000C9486000C9486000C94860080
:100010000C9486000C9486000C9486000C94860048
:100020000C9486000C9486000C9486000C94860038
:100030000C9486000C9486000C9486000C94860028
:100040000C94E9010C9486000C9486000C948600B4
:100050000C9486000C9486000C9486000C94860008
:100060000C9486000C9486000000000024002700F9
:100070002A0000000000250028002B0004040404CE
:100080000404040402020202020203030303030342
:10009000010204081020408001020408102001021F
:1000A00004081020000000080002010000030407FB
:1000B00000000000000000004103A00311241FBE47
:1000C000CFEFD8E0DEBFCDBF21E0A6E0B1E001C0B8
:1000D0001D92A932B207E1F711E0A0E0B1E0E8E536
:1000E000FAE002C005900D92A630B107D9F710E0F2
:1000F000CDE5D0E004C02197FE010E94F103CC358C
:10010000D107C9F70E9433020C941F050C9400001C
:1001100090E0FC01EC55FF4F2491FC01E057FF4FAC
:100120003491FC01E458FF4FE491EE23B9F122230E
:1001300039F1233091F038F42130A9F0223001F563
:1001400084B58F7D12C0273091F02830A1F0243083
:10015000B9F4809180008F7D03C0809180008F77FB
:10016000809380000DC084B58F7784BD09C08091D5
:10017000B0008F7703C08091B0008F7D8093B00076
:10018000F0E0EE0FFF1FEE58FF4FA591B4919FB71F
:10019000F8948C91309538233C939FBF0895CF936A
:1001A000DF9390E0FC01E057FF4F2491FC01E458FD
:1001B000FF4F8491882361F190E0880F991FFC0123
:1001C000E859FF4FC591D491FC01EE58FF4FA5911E
:1001D000B491611109C09FB7F8948881209582235A
:1001E0008883EC912E230BC0623061F49FB7F894A2
:1001F0008881322F309583238883EC912E2B2C938A
:100200009FBF06C08FB7F894E8812E2B28838FBF3D
:10021000DF91CF9108953FB7F89480910B019091B1
:100220000C01A0910D01B0910E0126B5A89B05C04F
:100230002F3F19F00196A11DB11D3FBFBA2FA92F65
:10024000982F8827820F911DA11DB11DBC01CD01E2
:1002500042E0660F771F881F991F4A95D1F70895CE
:100260000F931F93CF93DF93CDB7DEB729970FB6C8
:10027000F894DEBF0FBECDBF0E940B0100911E019E
:1002800010911F012091200130912101DC01CB014F
:10029000801B910BA20BB30B8C329140A105B105D1
:1002A00058F3F89480911301909114019A838983F3
:1002B000E0911801F0911901DF0111968081898781
:1002C00090910F01E0912201F0912301809124018E
:1002D000992309F42EC09081982B9887908180955E
:1002E00089238F838F818C8388E08B8358856F81EE
:1002F00049853B812C8189819A81508347FD252F37
:100300003A952083262F39F0441F00C000006083F7
:10031000000000C0F2CF38E04D91608300000197EB
:1003200061F7F0932301E093220149873B832C83FB
:1003300038C09081982B98879081809589238F83EE
:100340008F818E8388E08D8358856F8149853D81BB
:100350002E8189819A81508347FD252F00C000C0DE
:10036000208300C000C000C000C000C06083000047
:10037000262F3A9541F0441F000000C000C000C085
:1003800000C000C0E8CF38E04D9100C0608300C0DD
:10039000019709F7F0932301E093220149873D83F8
:1003A0002E839A83898378940E940B0160931E01A7
:1003B00070931F01809320019093210129960FB61D
:1003C000F894DEBF0FBECDBFDF91CF911F910F918B
:1003D00008951F920F920FB60F9211242F933F93FF
:1003E0008F939F93AF93BF938091070190910801E2
:1003F000A0910901B0910A013091060123E0230F79
:100400002D3720F40196A11DB11D05C026E8230F4C
:100410000296A11DB11D20930601809307019093C0
:100420000801A0930901B0930A0180910B019091FA
:100430000C01A0910D01B0910E010196A11DB11DFD
:1004400080930B0190930C01A0930D01B0930E01CA
:10045000BF91AF919F918F913F912F910F900FBEC0
:100460000F901F901895789484B5826084BD84B5F0
:10047000816084BD85B5826085BD85B5816085BD9F
:1004800080916E00816080936E0010928100809157
:1004900081008260809381008091810081608093DF
:1004A0008100809180008160809380008091B10004
:1004B00084608093B1008091B00081608093B0002F
:1004C00080917A00846080937A0080917A008260C3
:1004D00080937A0080917A00816080937A00809185
:1004E0007A00806880937A001092C1008091150193
:1004F0009091160197FD07C061E00E94CF008091A6
:1005000015010E94880081E08093100180911801FC
:1005100090911901892B11F00E943001209117014F
:10052000222339F1C0911801D0911901215051F0C5
:1005300030E040E050E06FEF7FEF80E090E00E941D
:10054000B00302C020E030E0FE0140911301509161
:100550001401CF018C1B9D0B8417950740F440813B
:10056000429FC001439F900D11249193EECF1092B2
:10057000170190E0C92E90E0D92EC0E0D0E000E055
:1005800010E0E12CF12C8091110190911201E816FC
:10059000F90608F06FC0809117012FEF882321F032
:1005A000829FC0011124292F30911D0140911A0111
:1005B0008091180190911901341303C0800F911F8D
:1005C00006C08C0F9D1FFC01E30FF11D10823091BE
:1005D0001A01FC01E30FF11D208320911B01FC0196
:1005E000E20FF11D108220911C01FC01E20FF11DB0
:1005F00010828091180190911901892B11F00E94AD
:1006000030010E940B014B015C0182E3482E512C0A
:10061000612C712C0E940B01DC01CB018819990916
:10062000AA09BB09883E9340A105B10598F381E072
:10063000481A51086108710828EE820E23E0921EC4
:10064000A11CB11C411451046104710419F74091BB
:1006500013015091140160E070E0809118019091B5
:1006600019010E9418058FEFE81AF80A0D5F1F4F55
:10067000249689CFC114D10409F47FCF0E940000D1
:100680007CCF109210011092170110921E0110924F
:100690001F01109220011092210181E080931D0121
:1006A00080931A0110921B0192E090931C01809399
:1006B0000F0182E190E090931401809313010E9456
:1006C000F7039093190180931801009761F022E1DC
:1006D000FC0111922A95E9F786E090E090931201CF
:1006E0008093110108C0109214011092130110920E
:1006F00012011092110187E090E09093160180930F
:10070000150180911001882339F061E087E00E9493
:10071000CF0087E00E948800E3E8F0E0E491F0E099
:10072000EE0FFF1FEE58FF4F859194919093230198
:1007300080932201E7E9F0E0E491E0932401089539
:1007400080911801909119010E948F0480911501E8
:100750009091160197FD03C060E00C94CF000895BE
:10076000052E97FB1EF400940E94C70357FD07D087
:100770000E94CF0307FC03D04EF40C94C70350959E
:100780004095309521953F4F4F4F5F4F089590957D
:100790008095709561957F4F8F4F9F4F0895A1E28F
:1007A0001A2EAA1BBB1BFD010DC0AA1FBB1FEE1FEB
:1007B000FF1FA217B307E407F50720F0A21BB30B36
:1007C000E40BF50B661F771F881F991F1A9469F7B2
:1007D00060957095809590959B01AC01BD01CF010E
:1007E0000895EE0FFF1F0590F491E02D09940F93EB
:1007F0001F93CF93DF938230910510F482E090E055
:10080000E0912701F091280120E030E0A0E0B0E085
:10081000309719F14081518102811381481759079E
:10082000C8F08417950769F4109731F012960C936D
:10083000129713961C9327C0009327011093280149
:1008400022C02115310519F04217530718F49A01F7
:10085000BD01EF01DF01F801DBCF21153105F9F012
:10086000281B390B2430310580F48A819B81611566
:10087000710521F0FB019383828304C090932801CA
:1008800080932701FE01329644C0FE01E20FF31F60
:100890008193919322503109398328833AC0209162
:1008A000250130912601232B41F420910201309142
:1008B00003013093260120932501209100013091FE
:1008C00001012115310541F42DB73EB740910401D6
:1008D00050910501241B350BE0912501F091260173
:1008E000E217F307A0F42E1B3F0B2817390778F007
:1008F000AC014E5F5F4F2417350748F04E0F5F1F66
:1009000050932601409325018193919302C0E0E02A
:10091000F0E0CF01DF91CF911F910F910895CF9318
:10092000DF93009709F481C0FC0132971382128291
:10093000A0912701B0912801109781F42081318185
:10094000820F931F20912501309126012817390726
:1009500051F5F0932601E093250167C0ED0120E0F9
:1009600030E0CE17DF0740F44A815B819E014115DC
:100970005105F1F0EA01F5CFD383C2834081518163
:10098000840F951FC817D90759F488819981840F5E
:10099000951F0296918380838A819B8193838283B2
:1009A0002115310529F4F0932801E09327013DC07A
:1009B000E901FB83EA8349915991C40FD51FEC17D4
:1009C000FD0761F480819181840F951F0296E901F2
:1009D00099838883828193819B838A83E0E0F0E01E
:1009E00012968D919C911397009719F0FD01DC01EF
:1009F000F7CF8D919C9111979D012E5F3F4F820FF4
:100A0000931F20912501309126012817390769F499
:100A1000309729F4109228011092270102C0138206
:100A20001282B0932601A0932501DF91CF91089502
:100A3000DC0101C06D9341505040E0F7089510E093
:100A4000CDE5D0E004C0FE010E94F1032196CE3531
:080A5000D107C9F7F894FFCFAC
:060A5800000029018000EE
:00000001FF
